:1000000004308A00AF2C0000E837EC34730030185D
:1000100030183018301830183018301830000C00F4
:100020000C00C420CC22A0204C10C227D427CE1014
:1000300000010C00C420CC22A0204C10C227D427E1
:10004000CE100001D927A02945105110D12AC9226C
:10005000D222D31021000C00C12CD92C20284128F9
:10006000C120A110202C44004129D220CE21C1263C
:10007000CF2900010C00D01E00013C308400831306
:100080000008031951280130F800F701F70B462842
:10009000F80B45284A30F700F70B4C284F28800B07
:1000A00043280800361856280812572808168316C1
:1000B00008128312B6185E2888125F2888168316E5
:1000C00088128312361966280813672808178316C2
:1000D00008138312B6196E2888136F2888178316A1
:1000E00088130000831209148316091077288312DD
:1000F00009108316091083120800B7018316081629
:1001000000308312081A0130B704831688160030B5
:100110008312881A0130F7000310F70D7708B7042F
:100120008316081700308312081B0130F700F70D03
:10013000F70DFC30F7057708B704831688170030F1
:100140008312881B0130F700F70DF70DF70DF8301B
:10015000F7057708B7043708F80008008316091078
:1001600089100911831289108316891008168816C0
:1001700008178817831209158316091100008312C6
:10018000091483160910000083127D207808B60038
:100190000910831609100000831209148316091030
:1001A000000083127D207808B5000910831609101D
:1001B00008128812081388138312360EF700F030E5
:1001C000F70577083504F8007808B500B51FEA2868
:1001D0008316B628B308031DEF288910F028891468
:1001E000831689100000831209118316091100007B
:1001F00083120910831609108312340EB5000F30D4
:10020000B5053508B600522034080F39B500B600E0
:10021000522008002830A5000C30A6000130A700AD
:100220000630A8000910831609108312891083165E
:1002300089108312091183160911081288120813F4
:1002400088130910891009110F308312BC003D205A
:100250000130A4002408033C031C36290330B600F7
:1002600052200530BC003D20A40A2A290230B600E5
:1002700052200530BC003D20A4012408033C031C8F
:100280004D2925302407840083130008A900B301F9
:100290002908B400AE20A40A3D298A110A12CF2CE5
:1002A000300B532956294030B1005729B101013094
:1002B0002F02B10731088038B200B3013208B40010
:1002C000AE2008002E08073A031970290B3A0319CB
:1002D0007529063A03197D29023A031983298829C9
:1002E0000130AF00B00050218D29B3010130B400BE
:1002F000AE200230BC003D208D290130AF0002301D
:10030000B00050218D29B3011030B400AE208D29EA
:100310000130B3002E08B400AE2008000B08A40082
:100320008B13831603178C170C1400000000831224
:100330000313A41B8B1703170C087F390319E22939
:100340000313A40003170D080313A50003170F08D8
:100350000313A6002408AE006221250803178D00B0
:100360000313260803178F0003130B08A7008B1332
:10037000831603178C170C1400000000831203135C
:10038000A71B8B1703170C0D0E0D7F390319E229DC
:100390000313A40003170D080313A50003170F0888
:1003A0000313A6002408AE006221250803178D0060
:1003B0000313260803178F008D0A03198F0A0313EE
:1003C0008E29031703130800AE0DAE0DAE0DF830E5
:1003D000AE053830AE052E084038B200B301320801
:1003E000B400AE20B1013108073C031C0A2A3008D2
:1003F000FA002F08AF0A0319B00A840083137A1891
:1004000083170008B2000130B3003208B400AE20F8
:10041000B10AF32908000730A6001730A7001630EC
:10042000A8001F30A9000E30AA000230AB00033034
:10043000AC00AD010130AE00B0012630AF00E421C8
:100440002408AF002508B00050210130AE00622121
:1004500008000730A6001730A7001630A8001F308C
:10046000A9000E30AA000830AB000C30AC00AD0182
:100470000230AE00B0012630AF00E4212408AF0006
:100480002508B00050210230AE0062210800831818
:100490004C2A473084008313F701F801F901FA016F
:1004A000C701C801C901CA01460845044404430400
:1004B00003198A2A2030CB000310BF0DC00DC10DD7
:1004C000C20DC70DC80DC90DCA0D46084A02031D4D
:1004D000732A45084902031D732A44084802031D74
:1004E000732A43084702031C842A4308C7024408AE
:1004F000031C440FC8024508031C450FC9024608E7
:10050000031C460FCA020314F70DF80DF90DFA0D7E
:10051000CB0B5C2A47088000840A48088000840AC4
:1005200049088000840A4A0880000800F801F9019F
:10053000F701FA013A08031DA02A39080319BA2A5B
:100540001030BB000310B70DB80DF70DFA0D3A08C7
:100550007A02031DAD2A39087702031CB62A39082E
:10056000F702031CFA033A08FA020314F80DF90D16
:10057000BB0BA22A0800BB0138083B020318C52A9E
:10058000FA30BC003D20BB0ABC2A3708BC003D2025
:10059000BB013A083B020318D52A5230F700F70B8B
:1005A000CF2AD22A0000BB0AC92A3908BC0012305F
:1005B000BC02031CEA2A3C3084008313FC30800513
:1005C0000310800C800C00080319EA2AE82A0000B6
:1005D000800BE72A080037080739F700370CF800C6
:1005E000F80CF80C1F30F8057808390784008313DD
:1005F0003A188317F801F80AF70AFF2AF80DF70BE3
:10060000FE2AB8080319072B780880040A2BF8097A
:100610007808800508008310C2010F30C100423005
:10062000C0004030BF00C601C5012608C40025082F
:10063000C30047227A08BA007908B9007808B800E0
:100640007708B7000310BA0CB90CB80CB70C0A3015
:100650003702A9003808AA000030031C0130AA02A2
:100660003908AB000030031C0130AB023A08AC0083
:100670000030031C0130AC0283102C08C2002B0890
:10068000C1002A08C0002908BF00C601C501033007
:10069000C400E830C30047227808AE007708AD00F8
:1006A0002E08B8002D08B700BA01FA30B90096221A
:1006B0007808B2002E08B8002D08B700BA01FA3049
:1006C000B90096227708B30083143730840083136F
:1006D0002C08C2002B08C1002A08C0002908BF004E
:1006E000C601C5010330C400E830C3004722380802
:1006F000B0003708AF003008B8002F08B700BA01C3
:10070000FA30B90096227808B1003008B8002F08F6
:10071000B700BA01FA30B90096227708B400BA01DE
:10072000B9012808B8002708B7003A08BE00390800
:10073000BD003808BC003708BB00C201C10103304E
:10074000C000E830BF002030C700C301C401C501AC
:10075000C6013E08FA003D08F9003C08F8003B08D5
:10076000F7000310771CC22B3F08C307400803188B
:10077000400FC40741080318410FC507420803187A
:10078000420FC607C60CC50CC40CC30CFA0CF90CFE
:10079000F80CF70CC70BB12B7A08BA007908B9002E
:1007A0007808B8007708B7008310C2010F30C10085
:1007B0004230C0004030BF00C601C5012608C40059
:1007C0002508C30047227A08BE007908BD007808D2
:1007D000BC007708BB0083103A08C2003908C1008A
:1007E0003808C0003708BF007A08C6007908C5007D
:1007F0007808C4007708C30047227808B600770855
:10080000B5003608FA0035080319B603B503B7007A
:100810007A08B800B708031D102CB80803193E2C3D
:100820003308B7003208B8003408B9003108BA00FC
:10083000BB222408B7000130B800BA01B901EB228D
:100840002408B700B801BA018030B900EB223308A0
:10085000B7003208B8003408B9003108BA00BB222A
:100860002408B700B801BA01B901EB222408B70087
:10087000B801BA018030B900EB22012C8A110A12AA
:100880008F2D2B08F8012A020318492C2A08F7009B
:10089000552CF7010830AC00AA0DF70D2B08770294
:1008A0000318F700F80DAC0B4C2C08002030251E67
:1008B0003030A6002408F700A41F662CF709F70AB9
:1008C0007708A4002D30A600A51725142408AA0037
:1008D0006430AB0041247708A40030307807A700CB
:1008E0002408AA000A30AB00412430307707A90061
:1008F00030307807A8002608F700303027020319A7
:10090000852CA514A51B2515992C2608A700203099
:10091000A600303028020319912C2514A51BA5141C
:10092000992C031D2514031D992C2708A80020309D
:10093000A7002519A02CA518A32C2518A62CA92C96
:100940002608AE0062212708AE0062212808AE000A
:1009500062212908AE0062218A110A12E12D0308E2
:100960001F3983000330A100E830A00083161F1454
:100970009F141F159F1107309C00831383120B13C4
:100980008B138B1BC02C83160611831206110330A8
:10099000A4006F30BC003D20A40BC92C0A290130F3
:1009A000AF00B0005021043003178D0000308F00DD
:1009B00003138E210130AF000230B0005021073008
:1009C00003178D0000308F0003138E212108A4002F
:1009D000A40AA4030319F02CFF30BC003D20E92C2D
:1009E0002008BC003D200F3003178D0000308F0021
:1009F00003138E210618812D103003178D0000304F
:100A00008F0003138E210130A400A5000B220330B8
:100A1000AF000130B0005021113003178D000030BD
:100A20008F0003138E210310210CA500200CA400BD
:100A30002508A600A60AA6030319222DFF30BC0034
:100A40003D201B2D2408BC003D200130A400A50042
:100A500029220310210CA500200CA4002508A600C3
:100A6000A60AA6030319382DFF30BC003D20312D06
:100A70002408BC003D20193003178D0000308F0082
:100A800003138E210130A400A5000B220330AF0018
:100A90000130B00050211A3003178D0000308F0054
:100AA00003138E210310210CA500200CA40025089F
:100AB000A600A60AA6030319612DFF30BC003D2045
:100AC0005A2D2408BC003D200130A400A500292295
:100AD0000230AF00B0005021223003178D000030EB
:100AE0008F0003138E212108A400A40AA403031974
:100AF0007D2DFF30BC003D20762D2008BC003D2020
:100B0000FA2C0A30A300061C9D2D3130A4000130C0
:100B1000A600F430A500A8014030A7000B2B210847
:100B2000A400A40AA4030319992DFF30BC003D20A2
:100B3000922D2008BC003D20832D2B3003178D0003
:100B400000308F0003138E212C3003178D000030EE
:100B50008F0003138E210430AF000230B00050210B
:100B6000343003178D0000308F0003138E212108CD
:100B7000A400A40AA4030319C12DFF30BC003D202A
:100B8000BA2D2008BC003D203A3003178D000030FC
:100B90008F0003138E210930AF000130B0005021C7
:100BA0003B3003178D0000308F0003138E210B3074
:100BB000AF000130B00050212308A4001830A50078
:060BC000562CCB2D630052
:02400E00393F38
:00000001FF
;PIC16F877A
;CRC=9553  CREATED="03-feb.-23 17:17"
