:1000000008308A0000280000A02669376910C4342F
:10001000EE37A03BAE3BA01000002028D222D32216
:100020004E2A41224F10D027D2100001CA22D32AD3
:1000300053104110CD27CE294126D6220001201091
:100040002010202D4529D0202E1020102010000136
:10005000201020274F10CD20D422531041262010ED
:100060000001201020224927CF29C12AD2244F176E
:1000700020100001C420CC22A0204C10C227D4277D
:10008000CE10A110000120102010201020102010F0
:100090002010201020100001D927A0294510511050
:1000A000D12AC922D222D31021000C00C12CD92C74
:1000B00020284128C120A110202C44004129D22011
:1000C000CE21C126CF2900010C00D01E0001F53C35
:1000D000203C2E3CA0396510ED3AF2346F1000013F
:1000E000F43A7310703A7310F0327239EF37EF1040
:1000F00000012010F53C21102010AD182010F6341E
:10010000E43000010C00F53C203C2E3CA039651089
:10011000ED3AF2346F100001F43A7310703A731034
:10012000F0327239EF37EF1000012010F53C21104A
:100130002010AD182010F634E43000010C00F53C1E
:10014000203C2E3CA0396510ED3AF2346F100001CE
:10015000F43A7310703A7310F0327239EF37EF10CF
:1001600000012010F53C21102010AD182010F634AD
:10017000E43000010C0047308400831300080319A9
:10018000CF280130F800F701F70BC428F80BC3287B
:100190004A30F700F70BCA28CD28800BC128080089
:1001A0004218D4280812D52808168316081283127C
:1001B000C218DC288812DD2888168316881283125C
:1001C0004219E4280813E528081783160813831238
:1001D000C219EC288813ED288817831688130000AD
:1001E0008312091483160910F52883120910831647
:1001F000091083120800C301831608160030831209
:10020000081A0130C3048316881600308312881A36
:100210000130F7000310F70D7708C30483160817A1
:1002200000308312081B0130F700F70DF70DFC308A
:10023000F7057708C3048316881700308312881BDC
:100240000130F700F70DF70DF70DF830F7057708D7
:10025000C3044308F8000800831609108910091127
:1002600083128910831689100816881608178817B4
:1002700083120915831609110000831209148316CD
:10028000091000008312FB207808C20009108316B1
:10029000091000008312091483160910000083124C
:1002A000FB207808C1000910831609100812881273
:1002B000081388138312420EF700F030F705770811
:1002C0004104F8007808C100C11F68298316342949
:1002D000BF08031D6D2989106E29891483168910A2
:1002E00000008312091183160911000083120910FE
:1002F000831609108312400EC1000F30C10541085A
:10030000C200D02040080F39C100C200D020080030
:100310002830B0000C30B1000130B2000630B3001C
:10032000091083160910831289108316891083120D
:10033000091183160911081288120813881309106D
:10034000891009110F308312C700BB200130AF00A4
:100350002F08033C031CB4290330C200D020053011
:10036000C700BB20AF0AA8290230C200D020053048
:10037000C700BB20AF012F08033C031CCB29303042
:100380002F07840083130008B400BF013408C000A5
:100390002C21AF0ABB298A150A122D283C0BD12922
:1003A000D4294030BD00D529BD0101303B02BD0735
:1003B0003D088038BE00BF013E08C0002C21080067
:1003C0003A08073A0319EE290B3A0319F329063ABA
:1003D0000319FB29023A0319012A062A0130BB003E
:1003E000BC00CE210B2ABF010130C0002C210230FD
:1003F000C700BB200B2A0130BB000230BC00CE215D
:100400000B2ABF011030C0002C210B2A0130BF0085
:100410003A08C0002C2108000B08AF008B1383168C
:1004200003178C170C140000000083120313AF1B7A
:100430008B1703170C087F390319602A0313AF00C9
:1004400003170D080313B00003170F080313B100BF
:100450002F08BA00E021300803178D00031331087C
:1004600003178F0003130B08B2008B1383160317B7
:100470008C170C140000000083120313B21B8B179F
:1004800003170C0D0E0D7F390319602A0313AF00FB
:1004900003170D080313B00003170F080313B1006F
:1004A0002F08BA00E021300803178D00031331082C
:1004B00003178F008D0A03198F0A03130C2A0317E1
:1004C00003130800BA0DBA0DBA0DF830BA0538306A
:1004D000BA053A084038BE00BF013E08C0002C21D2
:1004E000BD013D08073C031C882A3C08FA003B0874
:1004F000BB0A0319BC0A840083137A188317000807
:10050000BE000130BF003E08C0002C21BD0A712A88
:1005100008000730B2001730B3001630B4001F30A7
:10052000B5000E30B6000230B7000330B800B90194
:100530000130BA00BC013230BB0062223008BB007F
:100540003108BC00CE210130BA00E021080007309C
:10055000B2001730B3001630B4001F30B5000E30B3
:10056000B6000830B7000C30B800B9010230BA004C
:10057000BC013230BB0062223008BB003108BC0035
:10058000CE210230BA00E02108008318CA2A523076
:1005900084008313F701F801F901FA01D201D301B4
:1005A000D401D501510850044F044E040319082BFF
:1005B0002030D6000310CA0DCB0DCC0DCD0DD20DC1
:1005C000D30DD40DD50D51085502031DF12A500845
:1005D0005402031DF12A4F085302031DF12A4E084D
:1005E0005202031C022B4E08D2024F08031C4F0F6D
:1005F000D3025008031C500FD4025108031C510FA2
:10060000D5020314F70DF80DF90DFA0DD60BDA2A01
:1006100052088000840A53088000840A540880002D
:10062000840A550880000800F801F901F701FA0171
:100630004508031D1E2B44080319382B1030C60033
:100640000310C20DC30DF70DFA0D45087A02031D04
:100650002B2B44087702031C342B4408F702031C9D
:10066000FA034508FA020314F80DF90DC60B202B06
:1006700008002030D200CE01CF01D001D1014908BD
:10068000FA004808F9004708F8004608F700031088
:10069000771C582B4A08CE074B0803184B0FCF077F
:1006A0004C0803184C0FD0074D0803184D0FD10705
:1006B000D10CD00CCF0CCE0CFA0CF90CF80CF70CBA
:1006C000D20B472B0800C6014308460203186D2BC6
:1006D000FA30C700BB20C60A642B4208C700BB2003
:1006E000C6014508460203187D2B5230F700F70B70
:1006F000772B7A2B0000C60A712B4408C7001230F2
:10070000C702031C922B473084008313FC30800502
:100710000310800C800C00080319922B902B000012
:10072000800B8F2B080042080739F700420CF800B5
:10073000F80CF80C1F30F805780844078400831380
:1007400045188317F801F80AF70AA72BF80DF70BDD
:10075000A62BC3080319AF2B78088004B22BF80925
:100760007808800508008310CD010F30CC0042309E
:10077000CB004030CA00D101D0013108CF00300891
:10078000CE00C5227A08C5007908C4007808C300E5
:100790007708C2000310C50CC40CC30CC20C0A308D
:1007A0004202B4004308B5000030031C0130B5021A
:1007B0004408B6000030031C0130B6024508B700FB
:1007C0000030031C0130B70283103708CD00360813
:1007D000CC003508CB003408CA00D101D001033069
:1007E000CF00E830CE00C5227808B9007708B800FD
:1007F0003908C3003808C200C501FA30C400142308
:100800007808BD003908C3003808C200C501FA30B5
:10081000C40014237708BE0083144230840083137D
:100820003708CD003608CC003508CB003408CA00A4
:10083000D101D0010330CF00E830CE00C5224308FB
:10084000BB004208BA003B08C3003A08C200C50119
:10085000FA30C40014237808BC003B08C3003A08EF
:10086000C200C501FA30C40014237708BF00C501D7
:10087000C4013308C3003208C2004508C900440857
:10088000C8003308C7003208C600CD01CC010330D0
:10089000CB00E830CA0039237A08C5007908C400C3
:1008A0007808C3007708C2008310CD010F30CC0058
:1008B0004230CB004030CA00D101D0013108CF0016
:1008C0003008CE00C5227A08C9007908C800780827
:1008D000C7007708C60083104508CD004408CC0047
:1008E0004308CB004208CA007A08D1007908D0003A
:1008F0007808CF007708CE00C5227808C1007708B5
:10090000C0004108FA0040080319C103C003C20037
:100910007A08C300C208031D902CC3080319BE2C1B
:100920003E08C2003D08C3003F08C4003C08C500A3
:1009300063232F08C2000130C300C501C401932303
:100940002F08C200C301C5018030C40093233E08B4
:10095000C2003D08C3003F08C4003C08C500632333
:100960002F08C200C301C501C40193232F08C20090
:10097000C301C5018030C4009323812C0800B70156
:100980000408B6003710831B3714B01FCF2CB617DE
:10099000361EB60AAF09B009AF0A0319B00A300E05
:1009A000F038B200B207E23EB300323EB500300884
:1009B0000F39B307B307B507E93EB400B407B4076E
:1009C0002F0E0F39B407B507B40DB50DB509B50D28
:1009D0002F080F39B507B20D0730B1000A30B5073F
:1009E000B403031CEF2CB407B303031CF32CB307AD
:1009F000B203031CF72CB207B103031CFB2C3130EC
:100A00008400831307303605361384033605031D2F
:100A1000102D361A840A361A102D2030F7002D2D8D
:100A2000840735300402031936170008F700031D48
:100A3000212D361B212D361A3B2DB619212D2030A4
:100A40002C2DB61F292D2D30F70084033613B61335
:100A50002D2DB61536123030F707B0010408AF005F
:100A60003010831B30147708BA00E0212F0884006F
:100A7000831330188317840A361F112D08001D3088
:100A8000B1001C30B2001930B3000230B400143091
:100A9000B500B601B701B8010530BA00BC0131306C
:100AA000BB0062222F08BB003008BC00CE210530FD
:100AB000BA00E0218A150A12112B1C30B1001D303A
:100AC000B2001830B3000230B4000830B500B601EF
:100AD000B701B8010630BA00BC013130BB00622258
:100AE0002F08BB003008BC00CE210630BA00E02140
:100AF0008A150A12242B0630B2001630B300B40057
:100B00001E30B500B6000630B700B8001F30B9007F
:100B10000330BA00BC013230BB0062223008BB0097
:100B20003108BC00CE210330BA00E0210800AD0836
:100B3000031DA12D2C080A3C031CA12DC830C700A1
:100B4000BB20AD08031DA82D2C080A3C0318B22DAC
:100B5000AD08031DB22D2C08133C031CB22D96309A
:100B6000C700BB20AD08031DB92D2C08133C03188A
:100B7000C32DAD08031DC32D2C081D3C031CC32D24
:100B80005030C700BB20AD08031DCA2D2C081D3CEA
:100B90000318D42DAD08031DD42D2C08313C031CA3
:100BA000D42D4630C700BB20AD08031DDB2D2C081B
:100BB000313C0318E52DAD08031DE52D2C08633CE1
:100BC000031CE52D3C30C700BB20AD08031DEF2DF5
:100BD0002C08633C031CEF2D3230C700BB200800FB
:100BE0002508C9002408C8002308C7002208C60039
:100BF0004130CD00C630CC004E30CB006D30CA0045
:100C0000392339307707A2007808A3003030031861
:100C10003130A3077908A400003003180130A4077D
:100C20007A08A500003003180130A5072408F70052
:100C30002508F800F901FA012508B1002408B000E0
:100C40002508C3002408C2007F30C500FF30C4005F
:100C500014237708F8007A08F9000800B201B301FC
:100C60000C30B4000D30B5000F30B6000C30B700BA
:100C7000B8001F30B9000430BA00BC013230BB00EC
:100C800062223008BB003108BC00CE210430BA001B
:040C9000E021080057
:1010000003081F3983000330A700E830A6008316C9
:101010001F149F141F159F1107309C008313831208
:10102000A001A1010B138B138B1B13288316061130
:1010300083120611831686118312861183160612F7
:10104000831206120330AF006F30C7008A11BB2035
:101050008A15AF0B24288A1188298A150130BB0014
:10106000BC008A11CE218A15043003178D00003090
:101070008F008A1103130C228A150130BB00023045
:10108000BC008A11CE218A150D3003178D00003067
:101090008F008A1103130C228A15831606118312FE
:1010A000061583168611831286158316061283127F
:1010B00006160630AF00FA30C7008A11BB208A1529
:1010C000AF0B5B2883160611831206118316861157
:1010D0008312861183160612831206120630AF00A1
:1010E000FA30C7008A11BB208A15AF0B7028013077
:1010F000BB00BC008A11CE218A15163003178D0063
:1011000000308F008A1103130C228A150130BB00B6
:101110000230BC008A11CE218A151F3003178D00C2
:1011200000308F008A1103130C228A1583160611D2
:1011300083120615831686118312861583160612EE
:10114000831206160630AF00FA30C7008A11BB20A2
:101150008A15AF0BA4288316061183120611831675
:101160008611831286118316061283120612063028
:10117000AF00FA30C7008A11BB208A15AF0BB9281F
:101180000130BB00BC008A11CE218A15283003171C
:101190008D0000308F008A1103130C228A15013054
:1011A000BB000230BC008A11CE218A1531300317F2
:1011B0008D0000308F008A1103130C228A158316CC
:1011C000061183120615831686118312861583165F
:1011D0000612831206160310270CB000260CAF006F
:1011E0003008B100B10AB1030319FC28FF30C70071
:1011F0008A11BB208A15F3282F08C7008A11BB204B
:101200008A1583160611831206118316861183121E
:10121000861183160612831206120310270CB000E3
:10122000260CAF003008B100B10AB10303191E2922
:10123000FF30C7008A11BB208A1515292F08C70067
:101240008A11BB208A158316061183120615831690
:101250008611831286158316061283120616031052
:10126000270CB000260CAF003008B100B10AB10362
:1012700003194029FF30C7008A11BB208A1537297E
:101280002F08C7008A11BB208A1583160611831206
:101290000611831686118312861183160612831295
:1012A00006120310270CB000260CAF003008B10066
:1012B000B10AB10303196229FF30C7008A11BB20AC
:1012C0008A1559292F08C7008A11BB208A15831651
:1012D000061183120615831686118312861583164E
:1012E0000612831206160310270CB000260CAF005E
:1012F0003008B100B10AB10303198429FF30C700D7
:101300008A11BB208A157B292F08C7008A11BB20B0
:101310008A1583160611831206118316861183120D
:10132000861183160612831206120618E62901306A
:10133000B000B1008A1189228A150230BB00013049
:10134000BC008A11CE218A153A3003178D00003077
:101350008F008A1103130C228A150130BB00023062
:10136000BC008A11CE218A15433003178D0000304E
:101370008F008A1103130C228A150230AF00FA3055
:10138000C7008A11BB208A15AF0BBF290130B000FE
:10139000B1008A11A7228A150130BB000230BC00BF
:1013A0008A11CE218A154C3003178D0000308F0032
:1013B0008A1103130C228A150230AF00FA30C700DD
:1013C0008A11BB208A15AF0BDE299529061C402AFD
:1013D0003130AF000130B100F430B000B301403023
:1013E000B2008A11B3238A152708AF00AF0AAF03F2
:1013F0000319002AFF30C7008A11BB208A15F7297C
:101400002608C7008A11BB208A153130AF00013091
:10141000B100F430B000B3014030B2008A11B32300
:101420008A152708AF00AF0AAF0303191D2AFF3042
:10143000C7008A11BB208A15142A2608C7008A1102
:10144000BB208A153130AF000330B100E830B00066
:10145000B3015030B2008A11B3238A152708AF00B8
:10146000AF0AAF0303193A2AFF30C7008A11BB2025
:101470008A15312A2608C7008A11BB208A15E62959
:10148000553003178D0000308F008A1103130C2292
:101490008A15563003178D0000308F008A11031310
:1014A0000C228A150430BB000230BC008A11CE2108
:1014B0008A155E3003178D0000308F008A110313E8
:1014C0000C228A152708AF00AF0AAF0303196E2A52
:1014D000FF30C7008A11BB208A15652A2608C7007D
:1014E0008A11BB208A15643003178D0000308F00ED
:1014F0008A1103130C228A151330AB00AD01AC0125
:101500000330AE000930BB000130BC008A11CE218F
:101510008A15653003178D0000308F008A11031380
:101520000C228A150B30BB000130BC008A11CE2181
:101530008A15103084002D08B0002C08AF008A11E5
:10154000BF248A152E08033C031DB22A83160611F8
:1015500083120615831686118312861583160612CA
:10156000831206162E08023C031DC22A831606119A
:1015700083120615831686118312861583160612AA
:10158000831206122E0BD02A83160611831206151B
:101590008316861183128611831606128312061291
:1015A000AE08031DDF2A8316061183120611831667
:1015B0008611831286118316061283120612831671
:1015C00006148312061CFC2AAA08031DF32A3130D4
:1015D000AF000330B1002030B000B3018030B20062
:1015E0008A11B3238A152914AA0A2A08043C03186D
:1015F000FB2A2910AA01FE2A2910AA01A918132BD7
:10160000003029180130AF000230B0002F08B100BF
:101610008A1189228A15A9140130AF00B0008A11FD
:101620003F2D8A15252B003029180130AF000230DC
:10163000B0002F08B1008A11A7228A15A910013025
:10164000AF00B0008A115D2D8A152808093C031CE3
:10165000122C2B08B0000230B1008A117B258A15AC
:101660008A1197258A15AB032B08023C031DEE2B2C
:101670002918EE2BAE08031DC72B3130AF00013007
:10168000B1009030B000B3019630B2008A11B3239C
:101690008A150230AF00FA30C7008A11BB208A15C4
:1016A000AF0B4B2B3130AF000130B1009030B000A8
:1016B000B3019630B2008A11B3238A150230AF000D
:1016C000FA30C7008A11BB208A15AF0B602B31306E
:1016D000AF00B1019630B0000130B3002C30B20041
:1016E0008A11B3238A150230AF00FA30C7008A117D
:1016F000BB208A15AF0B752B0130BB00BC008A11D3
:10170000CE218A15673003178D0000308F008A11B3
:1017100003130C228A150830AF00FA30C7008A1173
:10172000BB208A15AF0B8D2B0130BB00BC008A118A
:10173000CE218A15703003178D0000308F008A117A
:1017400003130C228A150530BB000230BC008A113D
:10175000CE218A157030BA008A11E0218A153D30F9
:10176000BA008A11E0218A15103084002D08B000DB
:101770002C08AF008A11BF248A151030AF00FA3050
:10178000C7008A11BB208A15AF0BBF2BDF28313071
:10179000AF000130B100F430B000B3015030B200FE
:1017A0008A11B3238A15AE031330AB000130BB009E
:1017B000BC008A11CE218A15793003178D000030C4
:1017C0008F008A1103130C228A150430AF00FA30FF
:1017D000C7008A11BB208A15AF0BE72BAB08031D8E
:1017E000092C1330AB00AC0A0319AD0A8A11F0259D
:1017F0008A157908B0007808AF003008C3002F08B8
:10180000C200C5011F30C4008A1114238A1577084D
:10181000A800823003178D0000308F008A11031357
:101820000C228A152808093C0318102D2808133C9F
:10183000031C102D2B08B0000230B1008A117B254B
:101840008A1501302B02AF00B0000230B1008A11BE
:101850002E268A158A1197258A15AB032B0B322C5D
:10186000291C382C2B08023C031DEC2C2918EC2CCD
:10187000AE08031DC52C3130AF000130B1009030EF
:10188000B000B3019630B2008A11B3238A1502303A
:10189000AF00FA30C7008A11BB208A15AF0B492C64
:1018A0003130AF000130B1009030B000B30196305C
:1018B000B2008A11B3238A150230AF00FA30C70094
:1018C0008A11BB208A15AF0B5E2C3130AF00B101FD
:1018D0009630B0000130B3002C30B2008A11B3232F
:1018E0008A150230AF00FA30C7008A11BB208A1572
:1018F000AF0B732C0130BB00BC008A11CE218A15BE
:10190000833003178D0000308F008A1103130C22DF
:101910008A150830AF00FA30C7008A11BB208A153B
:10192000AF0B8B2C0130BB00BC008A11CE218A1575
:101930008C3003178D0000308F008A1103130C22A6
:101940008A150530BB000230BC008A11CE218A15F1
:101950007030BA008A11E0218A153D30BA008A1130
:10196000E0218A15103084002D08B0002C08AF004B
:101970008A11BF248A151030AF00FA30C7008A11CF
:10198000BB208A15AF0BBD2CDF283130AF000130F2
:10199000B100F430B000B3015030B2008A11B3236B
:1019A0008A15AE031330AB000130BB00BC008A11B6
:1019B000CE218A15953003178D0000308F008A11D3
:1019C00003130C228A150430AF00FA30C7008A11C5
:1019D000BB208A15AF0BE52CAB08031D072D133078
:1019E000AB00AC0A0319AD0A8A11F0258A157908F3
:1019F000B0007808AF003008C3002F08C200C5014E
:101A00001F30C4008A1114238A157708A8009E305D
:101A100003178D0000308F008A1103130C228A15E2
:101A20002808133C0318192E01302B02AF00B00018
:101A30000230B1008A117B258A1502302B02AF00DB
:101A4000B0000230B1008A112E268A152B08B00092
:101A50000230B1008A117B258A158A1197258A15D3
:101A6000AB032B0B352D291C412D2B08023C031DEC
:101A70003B2D291C412D2B08033C031DF52D291856
:101A8000F52DAE08031DCE2D3130AF000130B10071
:101A90009030B000B3019630B2008A11B3238A159A
:101AA0000230AF00FA30C7008A11BB208A15AF0B95
:101AB000522D3130AF000130B1009030B000B30191
:101AC0009630B2008A11B3238A150230AF00FA3083
:101AD000C7008A11BB208A15AF0B672D3130AF00CC
:101AE000B1019630B0000130B3002C30B2008A1141
:101AF000B3238A150230AF00FA30C7008A11BB2029
:101B00008A15AF0B7C2D0130BB00BC008A11CE21A1
:101B10008A159F3003178D0000308F008A11031340
:101B20000C228A150830AF00FA30C7008A11BB209A
:101B30008A15AF0B942D0130BB00BC008A11CE2159
:101B40008A15A83003178D0000308F008A11031307
:101B50000C228A150530BB000230BC008A11CE2150
:101B60008A157030BA008A11E0218A153D30BA001A
:101B70008A11E0218A15103084002D08B0002C084D
:101B8000AF008A11BF248A151030AF00FA30C700A9
:101B90008A11BB208A15AF0BC62DDF283130AF006C
:101BA0000130B100F430B000B3015030B2008A11FE
:101BB000B3238A15AE031330AB000130BB00BC0069
:101BC0008A11CE218A15B13003178D0000308F00A5
:101BD0008A1103130C228A150430AF00FA30C700B3
:101BE0008A11BB208A15AF0BEE2DAB08031D102EFA
:101BF0001330AB00AC0A0319AD0A8A11F0258A151F
:101C00007908B0007808AF003008C3002F08C20080
:101C1000C5011F30C4008A1114238A157708A80053
:101C2000BA3003178D0000308F008A1103130C2285
:061C30008A15822A630000
:02400E00393F38
:00000001FF
;PIC16F877A
;CRC=E24C  CREATED="08-feb.-23 14:21"
